{
  "contractName": "StewdentApplication",
  "abi": [
    {
      "constant": true,
      "inputs": [],
      "name": "url",
      "outputs": [
        {
          "name": "",
          "type": "string"
        }
      ],
      "payable": false,
      "stateMutability": "view",
      "type": "function"
    },
    {
      "constant": true,
      "inputs": [
        {
          "name": "",
          "type": "uint256"
        }
      ],
      "name": "applicants",
      "outputs": [
        {
          "name": "uid",
          "type": "uint256"
        },
        {
          "name": "id",
          "type": "uint256"
        },
        {
          "name": "gender",
          "type": "string"
        },
        {
          "name": "rank",
          "type": "uint256"
        },
        {
          "name": "cpga",
          "type": "uint256"
        }
      ],
      "payable": false,
      "stateMutability": "view",
      "type": "function"
    },
    {
      "inputs": [
        {
          "name": "_url",
          "type": "string"
        }
      ],
      "payable": false,
      "stateMutability": "nonpayable",
      "type": "constructor"
    },
    {
      "constant": false,
      "inputs": [
        {
          "name": "_uid",
          "type": "uint256"
        },
        {
          "name": "_gender",
          "type": "string"
        },
        {
          "name": "_rank",
          "type": "uint256"
        },
        {
          "name": "_cgpa",
          "type": "uint256"
        }
      ],
      "name": "apply",
      "outputs": [
        {
          "name": "",
          "type": "uint256"
        }
      ],
      "payable": true,
      "stateMutability": "payable",
      "type": "function"
    },
    {
      "constant": true,
      "inputs": [],
      "name": "getApplicantCount",
      "outputs": [
        {
          "name": "",
          "type": "uint256"
        }
      ],
      "payable": false,
      "stateMutability": "view",
      "type": "function"
    },
    {
      "constant": true,
      "inputs": [
        {
          "name": "_index",
          "type": "uint256"
        }
      ],
      "name": "getApplicant",
      "outputs": [
        {
          "name": "",
          "type": "uint256"
        },
        {
          "name": "",
          "type": "uint256"
        },
        {
          "name": "",
          "type": "string"
        },
        {
          "name": "",
          "type": "uint256"
        },
        {
          "name": "",
          "type": "uint256"
        }
      ],
      "payable": false,
      "stateMutability": "view",
      "type": "function"
    },
    {
      "constant": false,
      "inputs": [
        {
          "name": "_url",
          "type": "string"
        }
      ],
      "name": "update",
      "outputs": [
        {
          "name": "",
          "type": "string"
        }
      ],
      "payable": true,
      "stateMutability": "payable",
      "type": "function"
    },
    {
      "constant": true,
      "inputs": [],
      "name": "getUrl",
      "outputs": [
        {
          "name": "",
          "type": "string"
        }
      ],
      "payable": false,
      "stateMutability": "view",
      "type": "function"
    },
    {
      "constant": true,
      "inputs": [],
      "name": "contractBalance",
      "outputs": [
        {
          "name": "",
          "type": "uint256"
        }
      ],
      "payable": false,
      "stateMutability": "view",
      "type": "function"
    },
    {
      "constant": true,
      "inputs": [],
      "name": "getIdSeq",
      "outputs": [
        {
          "name": "",
          "type": "uint256"
        }
      ],
      "payable": false,
      "stateMutability": "view",
      "type": "function"
    }
  ],
  "bytecode": "0x60806040526103e860005534801561001657600080fd5b50604051610ce3380380610ce38339810180604052810190808051820192919050505033600160006101000a81548173ffffffffffffffffffffffffffffffffffffffff021916908373ffffffffffffffffffffffffffffffffffffffff1602179055508060029080519060200190610090929190610097565b505061013c565b828054600181600116156101000203166002900490600052602060002090601f016020900481019282601f106100d857805160ff1916838001178555610106565b82800160010185558215610106579182015b828111156101055782518255916020019190600101906100ea565b5b5090506101139190610117565b5090565b61013991905b8082111561013557600081600090555060010161011d565b5090565b90565b610b988061014b6000396000f300608060405260043610610099576000357c0100000000000000000000000000000000000000000000000000000000900463ffffffff168063279c734b1461009e578063319f3ab9146100c95780633d7403a3146101575780635600f04f1461022c57806363de5323146102bc5780638b7afe2e1461037e578063add4e816146103a9578063d6bd8727146103d4578063eea3f82d14610464575b600080fd5b3480156100aa57600080fd5b506100b3610526565b6040518082815260200191505060405180910390f35b61014160048036038101908080359060200190929190803590602001908201803590602001908080601f0160208091040260200160405190810160405280939291908181526020018383808284378201915050505050509192919290803590602001909291908035906020019092919050505061052f565b6040518082815260200191505060405180910390f35b6101b1600480360381019080803590602001908201803590602001908080601f01602080910402602001604051908101604052809392919081815260200183838082843782019150505050505091929192905050506105e8565b6040518080602001828103825283818151815260200191508051906020019080838360005b838110156101f15780820151818401526020810190506101d6565b50505050905090810190601f16801561021e5780820380516001836020036101000a031916815260200191505b509250505060405180910390f35b34801561023857600080fd5b506102416106a3565b6040518080602001828103825283818151815260200191508051906020019080838360005b83811015610281578082015181840152602081019050610266565b50505050905090810190601f1680156102ae5780820380516001836020036101000a031916815260200191505b509250505060405180910390f35b3480156102c857600080fd5b506102e760048036038101908080359060200190929190505050610741565b6040518086815260200185815260200180602001848152602001838152602001828103825285818151815260200191508051906020019080838360005b8381101561033f578082015181840152602081019050610324565b50505050905090810190601f16801561036c5780820380516001836020036101000a031916815260200191505b50965050505050505060405180910390f35b34801561038a57600080fd5b5061039361081e565b6040518082815260200191505060405180910390f35b3480156103b557600080fd5b506103be61083d565b6040518082815260200191505060405180910390f35b3480156103e057600080fd5b506103e961084a565b6040518080602001828103825283818151815260200191508051906020019080838360005b8381101561042957808201518184015260208101905061040e565b50505050905090810190601f1680156104565780820380516001836020036101000a031916815260200191505b509250505060405180910390f35b34801561047057600080fd5b5061048f600480360381019080803590602001909291905050506108ec565b6040518086815260200185815260200180602001848152602001838152602001828103825285818151815260200191508051906020019080838360005b838110156104e75780820151818401526020810190506104cc565b50505050905090810190601f1680156105145780820380516001836020036101000a031916815260200191505b50965050505050505060405180910390f35b60008054905090565b6000600360a060405190810160405280878152602001600080815460010191905081905581526020018681526020018581526020018481525090806001815401808255809150509060018203906000526020600020906005020160009091929091909150600082015181600001556020820151816001015560408201518160020190805190602001906105c3929190610a47565b5060608201518160030155608082015181600401555050506000549050949350505050565b60608160029080519060200190610600929190610ac7565b5060028054600181600116156101000203166002900480601f0160208091040260200160405190810160405280929190818152602001828054600181600116156101000203166002900480156106975780601f1061066c57610100808354040283529160200191610697565b820191906000526020600020905b81548152906001019060200180831161067a57829003601f168201915b50505050509050919050565b60028054600181600116156101000203166002900480601f0160208091040260200160405190810160405280929190818152602001828054600181600116156101000203166002900480156107395780601f1061070e57610100808354040283529160200191610739565b820191906000526020600020905b81548152906001019060200180831161071c57829003601f168201915b505050505081565b60038181548110151561075057fe5b9060005260206000209060050201600091509050806000015490806001015490806002018054600181600116156101000203166002900480601f0160208091040260200160405190810160405280929190818152602001828054600181600116156101000203166002900480156108085780601f106107dd57610100808354040283529160200191610808565b820191906000526020600020905b8154815290600101906020018083116107eb57829003601f168201915b5050505050908060030154908060040154905085565b60003073ffffffffffffffffffffffffffffffffffffffff1631905090565b6000600380549050905090565b606060028054600181600116156101000203166002900480601f0160208091040260200160405190810160405280929190818152602001828054600181600116156101000203166002900480156108e25780601f106108b7576101008083540402835291602001916108e2565b820191906000526020600020905b8154815290600101906020018083116108c557829003601f168201915b5050505050905090565b600080606060008060038681548110151561090357fe5b90600052602060002090600502016000015460038781548110151561092457fe5b90600052602060002090600502016001015460038881548110151561094557fe5b906000526020600020906005020160020160038981548110151561096557fe5b90600052602060002090600502016003015460038a81548110151561098657fe5b906000526020600020906005020160040154828054600181600116156101000203166002900480601f016020809104026020016040519081016040528092919081815260200182805460018160011615610100020316600290048015610a2d5780601f10610a0257610100808354040283529160200191610a2d565b820191906000526020600020905b815481529060010190602001808311610a1057829003601f168201915b505050505092509450945094509450945091939590929450565b828054600181600116156101000203166002900490600052602060002090601f016020900481019282601f10610a8857805160ff1916838001178555610ab6565b82800160010185558215610ab6579182015b82811115610ab5578251825591602001919060010190610a9a565b5b509050610ac39190610b47565b5090565b828054600181600116156101000203166002900490600052602060002090601f016020900481019282601f10610b0857805160ff1916838001178555610b36565b82800160010185558215610b36579182015b82811115610b35578251825591602001919060010190610b1a565b5b509050610b439190610b47565b5090565b610b6991905b80821115610b65576000816000905550600101610b4d565b5090565b905600a165627a7a72305820829dfe7058f554408be958422878be974c08a7dbe50a43f6277d8dce60c8164c0029",
  "source": "pragma solidity ^0.4.24;\r\n\r\ncontract StewdentApplication {\r\n    uint idSeq = 1000;\r\n    address creator;\r\n    string public url;\r\n        \r\n    struct Applicant{\r\n        uint uid; \r\n        uint id;\r\n        string gender;\r\n        uint rank;\r\n        uint cpga;\r\n    }\r\n\r\n    Applicant[] public applicants;\r\n    \r\n    constructor(\r\n        string _url\r\n    )public {\r\n        creator = msg.sender;\r\n        url = _url;\r\n    }\r\n    \r\n    function apply(uint _uid, string _gender, uint _rank, uint _cgpa) payable public returns(uint){\r\n        applicants.push(\r\n            Applicant({\r\n                uid : _uid,\r\n                id : ++idSeq,\r\n                gender : _gender,\r\n                rank : _rank,\r\n                cpga : _cgpa\r\n            })\r\n        );\r\n        return idSeq;\r\n    }\r\n    \r\n    function getApplicantCount() public constant returns(uint){\r\n        return applicants.length;\r\n    }\r\n\r\n    function getApplicant(uint _index) public constant returns (uint, uint, string, uint, uint){\r\n        return (applicants[_index].uid, applicants[_index].id, applicants[_index].gender, applicants[_index].rank, applicants[_index].cpga);\r\n    }\r\n    \r\n    function update(string _url) payable public returns(string){\r\n        url = _url;\r\n        return url;\r\n    }\r\n\r\n    function getUrl() public constant returns(string){\r\n        return url;\r\n    }\r\n\r\n    function contractBalance() public constant returns(uint){\r\n        return address(this).balance;\r\n    }\r\n\r\n    function getIdSeq() public constant returns(uint){\r\n        return idSeq;\r\n    }\r\n}",
  "sourcePath": "C:\\Users\\Toong Chee Sheng\\Desktop\\Dappathon\\StewdentApplication\\contracts\\StewdentApplication.sol",
  "compiler": {
    "name": "solc",
    "version": "0.4.24+commit.e67f0147.Emscripten.clang"
  },
  "schemaVersion": "2.0.1",
  "updatedAt": "2018-08-18T23:25:56.832Z"
}